:020000040000fa
:080000000002040000000000f2
:020000040000fa
:040008000a030000e7
:020000040000fa
:04000c000a030000e3
:020000040000fa
:040010000a030000df
:020000040000fa
:040014000a030000db
:020000040000fa
:040018000a030000d7
:020000040000fa
:04001c000a030000d3
:020000040000fa
:040020000a030000cf
:020000040000fa
:040024000a030000cb
:020000040000fa
:040028000a030000c7
:020000040000fa
:04002c00a802000026
:020000040000fa
:040030000a030000bf
:020000040000fa
:040034000a030000bb
:020000040000fa
:040038000a030000b7
:020000040000fa
:04003c000a030000b3
:020000040000fa
:040040000a030000af
:020000040000fa
:040044000a030000ab
:020000040000fa
:040048000a030000a7
:020000040000fa
:04004c000a030000a3
:020000040000fa
:040050000a0300009f
:020000040000fa
:040054000a0300009b
:020000040000fa
:040058000a03000097
:020000040000fa
:04005c000a03000093
:020000040000fa
:040060000a0300008f
:020000040000fa
:040064000a0300008b
:020000040000fa
:040068000a03000087
:020000040000fa
:04006c000a03000083
:020000040000fa
:040070000a0300007f
:020000040000fa
:040074000a0300007b
:020000040000fa
:040078000a03000077
:020000040000fa
:04007c000a03000073
:020000040000fa
:040080000a0300006f
:020000040000fa
:040084000a0300006b
:020000040000fa
:040088000a03000067
:020000040000fa
:04008c000a03000063
:020000040000fa
:040090000a0300005f
:020000040000fa
:040094000a0300005b
:020000040000fa
:040098000a03000057
:020000040000fa
:04009c000a03000053
:020000040000fa
:0400a0000a0300004f
:020000040000fa
:0400a4000a0300004b
:020000040000fa
:0400a8000a03000047
:020000040000fa
:0400ac000a03000043
:020000040000fa
:0400b0000a0300003f
:020000040000fa
:0400b4000a0300003b
:020000040000fa
:0400b8000a03000037
:020000040000fa
:0400bc000a03000033
:020000040000fa
:0400c0000a0300002f
:020000040000fa
:0400c4000a0300002b
:020000040000fa
:0400c8000a03000027
:020000040000fa
:0400cc000a03000023
:020000040000fa
:0400d0000a0300001f
:020000040000fa
:0400d4000a0300001b
:020000040000fa
:0400d8000a03000017
:020000040000fa
:0400dc000a03000013
:020000040000fa
:0400e0000a0300000f
:020000040000fa
:0400e4000a0300000b
:020000040000fa
:0400e8000a03000007
:020000040000fa
:0400ec000a03000003
:020000040000fa
:0400f0000a030000ff
:020000040000fa
:0400f4000a030000fb
:020000040000fa
:0400f8000a030000f7
:020000040000fa
:0400fc000a030000f3
:020000040000fa
:040100000a030000ee
:020000040000fa
:040104000a030000ea
:020000040000fa
:040108000a030000e6
:020000040000fa
:04010c000a030000e2
:020000040000fa
:040110000a030000de
:020000040000fa
:040114000a030000da
:020000040000fa
:040118000a030000d6
:020000040000fa
:04011c000a030000d2
:020000040000fa
:040120000a030000ce
:020000040000fa
:040124000a030000ca
:020000040000fa
:040128000a030000c6
:020000040000fa
:04012c000a030000c2
:020000040000fa
:040130000a030000be
:020000040000fa
:040134000a030000ba
:020000040000fa
:040138000a030000b6
:020000040000fa
:04013c000a030000b2
:020000040000fa
:040140000a030000ae
:020000040000fa
:040144000a030000aa
:020000040000fa
:040148000a030000a6
:020000040000fa
:04014c000a030000a2
:020000040000fa
:040150000a0300009e
:020000040000fa
:040154000a0300009a
:020000040000fa
:040158000a03000096
:020000040000fa
:04015c000a03000092
:020000040000fa
:040160000a0300008e
:020000040000fa
:040164000a0300008a
:020000040000fa
:040168000a03000086
:020000040000fa
:040208000a030000e5
:020000040000fa
:04020c000a030000e1
:020000040000fa
:040210000a030000dd
:020000040000fa
:040214000a030000d9
:020000040000fa
:040218000a030000d5
:020000040000fa
:04021c000a030000d1
:020000040000fa
:040220000a030000cd
:020000040000fa
:040224000a030000c9
:020000040000fa
:040228000a030000c5
:020000040000fa
:04022c000a030000c1
:020000040000fa
:040230000a030000bd
:020000040000fa
:040234000a030000b9
:020000040000fa
:040238000a030000b5
:020000040000fa
:04023c000a030000b1
:020000040000fa
:040240000a030000ad
:020000040000fa
:040244000a030000a9
:020000040000fa
:040248000a030000a5
:020000040000fa
:04024c000a030000a1
:020000040000fa
:040250000a0300009d
:020000040000fa
:040254000a03000099
:020000040000fa
:040258000a03000095
:020000040000fa
:04025c000a03000091
:020000040000fa
:040260000a0300008d
:020000040000fa
:040264000a03000089
:020000040000fa
:040268000a03000085
:020000040000fa
:04026c000a03000081
:020000040000fa
:040270000a0300007d
:020000040000fa
:040274000a03000079
:020000040000fa
:040278000a03000075
:020000040000fa
:04027c000a03000071
:020000040000fa
:040280000a0300006d
:020000040000fa
:040284000a03000069
:020000040000fa
:040288000a03000065
:020000040000fa
:04028c000a03000061
:020000040000fa
:040290000a0300005d
:020000040000fa
:040294000a03000059
:020000040000fa
:040298000a03000055
:020000040000fa
:04029c000a03000051
:020000040000fa
:0402a0000a0300004d
:020000040000fa
:0402a4000a03000049
:020000040000fa
:0402a8000a03000045
:020000040000fa
:0402ac000a03000041
:020000040000fa
:0402b0000a0300003d
:020000040000fa
:0402b4000a03000039
:020000040000fa
:0402b8000a03000035
:020000040000fa
:0402bc000a03000031
:020000040000fa
:0402c0000a0300002d
:020000040000fa
:0402c4000a03000029
:020000040000fa
:0402c8000a03000025
:020000040000fa
:0402cc000a03000021
:020000040000fa
:0402d0000a0300001d
:020000040000fa
:0402d4000a03000019
:020000040000fa
:0402d8000a03000015
:020000040000fa
:0402dc000a03000011
:020000040000fa
:0402e0000a0300000d
:020000040000fa
:0402e4000a03000009
:020000040000fa
:0402e8000a03000005
:020000040000fa
:0402ec000a03000001
:020000040000fa
:0402f0000a030000fd
:020000040000fa
:0402f4000a030000f9
:020000040000fa
:0402f8000a030000f5
:020000040000fa
:0402fc000a030000f1
:020000040000fa
:040300000a030000ec
:020000040000fa
:040304000a030000e8
:020000040000fa
:040308000a030000e4
:020000040000fa
:04030c000a030000e0
:020000040000fa
:040310000a030000dc
:020000040000fa
:040314000a030000d8
:020000040000fa
:040318000a030000d4
:020000040000fa
:04031c000a030000d0
:020000040000fa
:040320000a030000cc
:020000040000fa
:040324000a030000c8
:020000040000fa
:040328000a030000c4
:020000040000fa
:04032c000a030000c0
:020000040000fa
:040330000a030000bc
:020000040000fa
:040334000a030000b8
:020000040000fa
:040338000a030000b4
:020000040000fa
:04033c000a030000b0
:020000040000fa
:040340000a030000ac
:020000040000fa
:040344000a030000a8
:020000040000fa
:040348000a030000a4
:020000040000fa
:04034c000a030000a0
:020000040000fa
:040350000a0300009c
:020000040000fa
:040354000a03000098
:020000040000fa
:040358000a03000094
:020000040000fa
:04035c000a03000090
:020000040000fa
:040360000a0300008c
:020000040000fa
:040364000a03000088
:020000040000fa
:040368000a03000084
:020000040000fa
:100400002f8020000eff20000e0188000000000059
:10041000000020000000e000020032000001200087
:10042000200288000c000700603a20000100200034
:1004300011000700000020000000e0000200320070
:100440000000020000000000ce02020000000000d8
:100450000040da000000fe004440a90080022000b5
:100460000000e0000300320000002000a00188002e
:100470004440a80000000600910188008000780038
:100480000000eb0015003700e280400032a0b4000d
:100490009101ba00e280400032a0b4009102ba009b
:1004a000e280400032a0b4000002eb00472bde00e7
:1004b000f507b200602ce10004003a000059eb009f
:1004c0008301e900fdff3e00040037006128e100e0
:1004d000010032000082eb000b00070011c3ba00dc
:1004e0001101ba000604e00003003a000200e00037
:1004f000e5ff3a0000000600f607b200960188000a
:1005000082007800f5ff37003159ba008301e90015
:100510000c0032002159ba008301e90008003200c2
:100520000400e00003003a00e280400032a0b40082
:10053000f5ff370011d9ba008301e900faff3a004c
:100540008100e800e180400032a0b4000000060015
:100550003600f800809fbe00829fbe00849fbe00d0
:10056000869fbe003400f80000002000a001880033
:100570000000fa008420a9006b0007000080fa0048
:100580003400f9004f03be004f02be004f01be0011
:100590004f00be003600f900004006000000fa00df
:1005a000e024ef00e224ef009420a800000a80007d
:1005b0000000a0000010a0000020a100000a880098
:1005c000000a80000050a1000060a100000a88001d
:1005d000000a800000a0a00000b0a00000c0a000a1
:1005e000000a8800c9e2a900c9c2a8008038210019
:1005f000100888000421a900200880000040a10004
:100600000050a1002008880005e1a8000021ef00ab
:0c061000ffff37000040da000000fe0091
:020000040000fa
:10061c00418800008a64000020820000668000008f
:10062c0040870000658400004342000060860000a3
:10063c008d62000060210000618100006389000070
:10064c008b8c0000bfaf0000a7a30000a1a000008e
:10065c00b0b80000bcbe0000626c0000610000007d
:020000040000fa
:10066c000200fa00004f780000c4b3009e407800ee
:10067c0080cf50000a003400a0c5b3009e40780023
:10068c0080cf500006003c001e00fb001004b1009f
:10069c00e1302800614078000080fb001d0037002d
:1006ac0000c6b3009e40780080cf50000a00340092
:1006bc00a0c7b3009e40780080cf500006003c00dd
:1006cc001e00fb001006b100e130280061407800ec
:1006dc000080fb000f003700f0c2b3009e40780092
:1006ec0080cf50000a00340090c3b3009e407800c5
:1006fc0080cf500006003c001e00fb00760050002e
:10070c00e1302800614078000080fb0001003700d8
:10071c000080eb000080fa00000006000000fa00e8
:10072c00cde2a8000080fa00000006000200fa00ea
:10073c0000088000000f780050168000feff370084
:020000040000fa
:10074c0000080000020000000200000032830000dc
:04075c00b003800066
:020000040000fa
:040760000000000095
:020000040000fa
:0200000401f009
:04001000bfff00002e
:00000001FF
